{
  "_format": "hh-sol-artifact-1",
  "contractName": "MarketVault",
  "sourceName": "contracts/vault/MarketVault.sol",
  "abi": [
    {
      "inputs": [
        {
          "internalType": "uint256",
          "name": "_viewId",
          "type": "uint256"
        },
        {
          "internalType": "address",
          "name": "_token",
          "type": "address"
        },
        {
          "internalType": "address",
          "name": "_authorizedTradingEngine",
          "type": "address"
        },
        {
          "internalType": "address",
          "name": "_authorizedSettlement",
          "type": "address"
        }
      ],
      "stateMutability": "nonpayable",
      "type": "constructor"
    },
    {
      "inputs": [],
      "name": "ReentrancyGuardReentrantCall",
      "type": "error"
    },
    {
      "inputs": [
        {
          "internalType": "address",
          "name": "token",
          "type": "address"
        }
      ],
      "name": "SafeERC20FailedOperation",
      "type": "error"
    },
    {
      "inputs": [],
      "name": "Vault__InsufficientBalance",
      "type": "error"
    },
    {
      "inputs": [],
      "name": "Vault__InvalidRecipient",
      "type": "error"
    },
    {
      "inputs": [],
      "name": "Vault__InvariantViolation",
      "type": "error"
    },
    {
      "inputs": [],
      "name": "Vault__UnauthorisedEngine",
      "type": "error"
    },
    {
      "inputs": [],
      "name": "Vault__UnauthorisedSettlement",
      "type": "error"
    },
    {
      "inputs": [],
      "name": "Vault__ZeroAddress",
      "type": "error"
    },
    {
      "inputs": [],
      "name": "Vault__ZeroAmount",
      "type": "error"
    },
    {
      "anonymous": false,
      "inputs": [
        {
          "indexed": true,
          "internalType": "uint256",
          "name": "viewId",
          "type": "uint256"
        },
        {
          "indexed": true,
          "internalType": "address",
          "name": "caller",
          "type": "address"
        },
        {
          "indexed": false,
          "internalType": "uint256",
          "name": "amount",
          "type": "uint256"
        }
      ],
      "name": "Deposited",
      "type": "event"
    },
    {
      "anonymous": false,
      "inputs": [
        {
          "indexed": true,
          "internalType": "uint256",
          "name": "viewId",
          "type": "uint256"
        },
        {
          "indexed": true,
          "internalType": "address",
          "name": "receiver",
          "type": "address"
        },
        {
          "indexed": false,
          "internalType": "uint256",
          "name": "amount",
          "type": "uint256"
        }
      ],
      "name": "Settled",
      "type": "event"
    },
    {
      "anonymous": false,
      "inputs": [
        {
          "indexed": true,
          "internalType": "uint256",
          "name": "viewId",
          "type": "uint256"
        },
        {
          "indexed": true,
          "internalType": "address",
          "name": "receiver",
          "type": "address"
        },
        {
          "indexed": false,
          "internalType": "uint256",
          "name": "amount",
          "type": "uint256"
        }
      ],
      "name": "Withdrawn",
      "type": "event"
    },
    {
      "inputs": [],
      "name": "authorizedSettlementManager",
      "outputs": [
        {
          "internalType": "address",
          "name": "",
          "type": "address"
        }
      ],
      "stateMutability": "view",
      "type": "function"
    },
    {
      "inputs": [],
      "name": "authorizedTradingEngine",
      "outputs": [
        {
          "internalType": "address",
          "name": "",
          "type": "address"
        }
      ],
      "stateMutability": "view",
      "type": "function"
    },
    {
      "inputs": [],
      "name": "balance",
      "outputs": [
        {
          "internalType": "uint256",
          "name": "",
          "type": "uint256"
        }
      ],
      "stateMutability": "view",
      "type": "function"
    },
    {
      "inputs": [
        {
          "internalType": "uint256",
          "name": "amount",
          "type": "uint256"
        }
      ],
      "name": "deposit",
      "outputs": [],
      "stateMutability": "nonpayable",
      "type": "function"
    },
    {
      "inputs": [
        {
          "internalType": "address",
          "name": "to",
          "type": "address"
        },
        {
          "internalType": "uint256",
          "name": "amount",
          "type": "uint256"
        }
      ],
      "name": "settle",
      "outputs": [],
      "stateMutability": "nonpayable",
      "type": "function"
    },
    {
      "inputs": [],
      "name": "token",
      "outputs": [
        {
          "internalType": "address",
          "name": "",
          "type": "address"
        }
      ],
      "stateMutability": "view",
      "type": "function"
    },
    {
      "inputs": [],
      "name": "totalDeposits",
      "outputs": [
        {
          "internalType": "uint256",
          "name": "",
          "type": "uint256"
        }
      ],
      "stateMutability": "view",
      "type": "function"
    },
    {
      "inputs": [],
      "name": "totalSettled",
      "outputs": [
        {
          "internalType": "uint256",
          "name": "",
          "type": "uint256"
        }
      ],
      "stateMutability": "view",
      "type": "function"
    },
    {
      "inputs": [],
      "name": "totalWithdrawals",
      "outputs": [
        {
          "internalType": "uint256",
          "name": "",
          "type": "uint256"
        }
      ],
      "stateMutability": "view",
      "type": "function"
    },
    {
      "inputs": [],
      "name": "viewId",
      "outputs": [
        {
          "internalType": "uint256",
          "name": "",
          "type": "uint256"
        }
      ],
      "stateMutability": "view",
      "type": "function"
    },
    {
      "inputs": [
        {
          "internalType": "address",
          "name": "to",
          "type": "address"
        },
        {
          "internalType": "uint256",
          "name": "amount",
          "type": "uint256"
        }
      ],
      "name": "withdraw",
      "outputs": [],
      "stateMutability": "nonpayable",
      "type": "function"
    }
  ],
  "bytecode": "0x61010060405234801561001157600080fd5b50604051610aa6380380610aa6833981016040819052610030916100e8565b60016000556001600160a01b03831661005c57604051631aa7661960e01b815260040160405180910390fd5b6001600160a01b03821661008357604051631aa7661960e01b815260040160405180910390fd5b6001600160a01b0381166100aa57604051631aa7661960e01b815260040160405180910390fd5b6080939093526001600160a01b0391821660a052811660c0521660e052610135565b80516001600160a01b03811681146100e357600080fd5b919050565b600080600080608085870312156100fe57600080fd5b8451935061010e602086016100cc565b925061011c604086016100cc565b915061012a606086016100cc565b905092959194509250565b60805160a05160c05160e0516108f36101b36000396000818161016e01526101e601526000818161010b015281816103fd01526105280152600081816101b1015281816102b9015281816103720152818161048101526105fb01526000818160c8015281816102f4015281816104bb015261063601526108f36000f3fe608060405234801561001057600080fd5b50600436106100a95760003560e01c8063b69ef8a811610071578063b69ef8a81461014e578063b6b55f2514610156578063d5be5b6414610169578063eace4c9114610190578063f3fef3a314610199578063fc0c546a146101ac57600080fd5b806315afd409146100ae578063539c2c89146100c357806360464627146100fd5780637c486434146101065780637d88209714610145575b600080fd5b6100c16100bc366004610811565b6101d3565b005b6100ea7f000000000000000000000000000000000000000000000000000000000000000081565b6040519081526020015b60405180910390f35b6100ea60025481565b61012d7f000000000000000000000000000000000000000000000000000000000000000081565b6040516001600160a01b0390911681526020016100f4565b6100ea60015481565b6100ea61035a565b6100c1610164366004610849565b6103ea565b61012d7f000000000000000000000000000000000000000000000000000000000000000081565b6100ea60035481565b6100c16101a7366004610811565b610515565b61012d7f000000000000000000000000000000000000000000000000000000000000000081565b6101db610686565b336001600160a01b037f000000000000000000000000000000000000000000000000000000000000000016146102245760405163b77d3cd960e01b815260040160405180910390fd5b6001600160a01b03821661024b57604051633b8716d960e21b815260040160405180910390fd5b8060000361026c57604051633a5cf6ab60e01b815260040160405180910390fd5b61027461035a565b81111561029457604051634a3ac48360e01b815260040160405180910390fd5b80600360008282546102a69190610878565b909155506102e090506001600160a01b037f00000000000000000000000000000000000000000000000000000000000000001683836106b0565b6102e8610714565b816001600160a01b03167f00000000000000000000000000000000000000000000000000000000000000007f2c35d68fdf40b18e913bb877373b4a4fc67810e2546dc5c9f9208eb8494057cb8360405161034491815260200190565b60405180910390a36103566001600055565b5050565b6040516370a0823160e01b81523060048201526000907f00000000000000000000000000000000000000000000000000000000000000006001600160a01b0316906370a0823190602401602060405180830381865afa1580156103c1573d6000803e3d6000fd5b505050506040513d601f19601f820116820180604052508101906103e59190610891565b905090565b6103f2610686565b336001600160a01b037f0000000000000000000000000000000000000000000000000000000000000000161461043b576040516352da410960e11b815260040160405180910390fd5b8060000361045c57604051633a5cf6ab60e01b815260040160405180910390fd5b806001600082825461046e9190610878565b909155506104a990506001600160a01b037f00000000000000000000000000000000000000000000000000000000000000001633308461075d565b6104b1610714565b60405181815233907f0000000000000000000000000000000000000000000000000000000000000000907f1599c0fcf897af5babc2bfcf707f5dc050f841b044d97c3251ecec35b9abf80b9060200160405180910390a36105126001600055565b50565b61051d610686565b336001600160a01b037f00000000000000000000000000000000000000000000000000000000000000001614610566576040516352da410960e11b815260040160405180910390fd5b6001600160a01b03821661058d57604051633b8716d960e21b815260040160405180910390fd5b806000036105ae57604051633a5cf6ab60e01b815260040160405180910390fd5b6105b661035a565b8111156105d657604051634a3ac48360e01b815260040160405180910390fd5b80600260008282546105e89190610878565b9091555061062290506001600160a01b037f00000000000000000000000000000000000000000000000000000000000000001683836106b0565b61062a610714565b816001600160a01b03167f00000000000000000000000000000000000000000000000000000000000000007fcf7d23a3cbe4e8b36ff82fd1b05b1b17373dc7804b4ebbd6e2356716ef2023728360405161034491815260200190565b6002600054036106a957604051633ee5aeb560e01b815260040160405180910390fd5b6002600055565b6040516001600160a01b0383811660248301526044820183905261070f91859182169063a9059cbb906064015b604051602081830303815290604052915060e01b6020820180516001600160e01b03838183161783525050505061079c565b505050565b600060035460025460015461072991906108aa565b61073391906108aa565b90508061073e61035a565b10156105125760405163e695de7f60e01b815260040160405180910390fd5b6040516001600160a01b0384811660248301528381166044830152606482018390526107969186918216906323b872dd906084016106dd565b50505050565b600080602060008451602086016000885af1806107bf576040513d6000823e3d81fd5b50506000513d915081156107d75780600114156107e4565b6001600160a01b0384163b155b1561079657604051635274afe760e01b81526001600160a01b038516600482015260240160405180910390fd5b6000806040838503121561082457600080fd5b82356001600160a01b038116811461083b57600080fd5b946020939093013593505050565b60006020828403121561085b57600080fd5b5035919050565b634e487b7160e01b600052601160045260246000fd5b8082018082111561088b5761088b610862565b92915050565b6000602082840312156108a357600080fd5b5051919050565b8181038181111561088b5761088b61086256fea2646970667358221220af40a76f5f51c58fcb2ee1d867e40f5412c49986e45598d30cdc9fce86ea502b64736f6c63430008180033",
  "linkReferences": {},
  "deployedLinkReferences": {}
}