{
  "_format": "hh-sol-artifact-1",
  "contractName": "Market",
  "sourceName": "contracts/Market.sol",
  "abi": [
    {
      "inputs": [
        {
          "internalType": "string",
          "name": "_question",
          "type": "string"
        },
        {
          "internalType": "string",
          "name": "_description",
          "type": "string"
        },
        {
          "internalType": "address",
          "name": "_creator",
          "type": "address"
        },
        {
          "internalType": "address",
          "name": "_usdt",
          "type": "address"
        },
        {
          "internalType": "address",
          "name": "_treasury",
          "type": "address"
        },
        {
          "internalType": "address",
          "name": "_treasuryB",
          "type": "address"
        }
      ],
      "stateMutability": "nonpayable",
      "type": "constructor"
    },
    {
      "inputs": [
        {
          "internalType": "address",
          "name": "sender",
          "type": "address"
        },
        {
          "internalType": "uint256",
          "name": "balance",
          "type": "uint256"
        },
        {
          "internalType": "uint256",
          "name": "needed",
          "type": "uint256"
        },
        {
          "internalType": "uint256",
          "name": "tokenId",
          "type": "uint256"
        }
      ],
      "name": "ERC1155InsufficientBalance",
      "type": "error"
    },
    {
      "inputs": [
        {
          "internalType": "address",
          "name": "approver",
          "type": "address"
        }
      ],
      "name": "ERC1155InvalidApprover",
      "type": "error"
    },
    {
      "inputs": [
        {
          "internalType": "uint256",
          "name": "idsLength",
          "type": "uint256"
        },
        {
          "internalType": "uint256",
          "name": "valuesLength",
          "type": "uint256"
        }
      ],
      "name": "ERC1155InvalidArrayLength",
      "type": "error"
    },
    {
      "inputs": [
        {
          "internalType": "address",
          "name": "operator",
          "type": "address"
        }
      ],
      "name": "ERC1155InvalidOperator",
      "type": "error"
    },
    {
      "inputs": [
        {
          "internalType": "address",
          "name": "receiver",
          "type": "address"
        }
      ],
      "name": "ERC1155InvalidReceiver",
      "type": "error"
    },
    {
      "inputs": [
        {
          "internalType": "address",
          "name": "sender",
          "type": "address"
        }
      ],
      "name": "ERC1155InvalidSender",
      "type": "error"
    },
    {
      "inputs": [
        {
          "internalType": "address",
          "name": "operator",
          "type": "address"
        },
        {
          "internalType": "address",
          "name": "owner",
          "type": "address"
        }
      ],
      "name": "ERC1155MissingApprovalForAll",
      "type": "error"
    },
    {
      "inputs": [
        {
          "internalType": "address",
          "name": "owner",
          "type": "address"
        }
      ],
      "name": "OwnableInvalidOwner",
      "type": "error"
    },
    {
      "inputs": [
        {
          "internalType": "address",
          "name": "account",
          "type": "address"
        }
      ],
      "name": "OwnableUnauthorizedAccount",
      "type": "error"
    },
    {
      "inputs": [],
      "name": "ReentrancyGuardReentrantCall",
      "type": "error"
    },
    {
      "inputs": [
        {
          "internalType": "address",
          "name": "token",
          "type": "address"
        }
      ],
      "name": "SafeERC20FailedOperation",
      "type": "error"
    },
    {
      "anonymous": false,
      "inputs": [
        {
          "indexed": true,
          "internalType": "address",
          "name": "account",
          "type": "address"
        },
        {
          "indexed": true,
          "internalType": "address",
          "name": "operator",
          "type": "address"
        },
        {
          "indexed": false,
          "internalType": "bool",
          "name": "approved",
          "type": "bool"
        }
      ],
      "name": "ApprovalForAll",
      "type": "event"
    },
    {
      "anonymous": false,
      "inputs": [
        {
          "indexed": true,
          "internalType": "address",
          "name": "user",
          "type": "address"
        },
        {
          "indexed": false,
          "internalType": "uint256",
          "name": "side",
          "type": "uint256"
        },
        {
          "indexed": false,
          "internalType": "uint256",
          "name": "usdtIn",
          "type": "uint256"
        },
        {
          "indexed": false,
          "internalType": "uint256",
          "name": "sharesOut",
          "type": "uint256"
        }
      ],
      "name": "Bought",
      "type": "event"
    },
    {
      "anonymous": false,
      "inputs": [
        {
          "indexed": true,
          "internalType": "address",
          "name": "user",
          "type": "address"
        },
        {
          "indexed": false,
          "internalType": "uint256",
          "name": "amount",
          "type": "uint256"
        }
      ],
      "name": "Claimed",
      "type": "event"
    },
    {
      "anonymous": false,
      "inputs": [
        {
          "indexed": true,
          "internalType": "address",
          "name": "initiator",
          "type": "address"
        },
        {
          "indexed": false,
          "internalType": "uint256",
          "name": "settlementTime",
          "type": "uint256"
        }
      ],
      "name": "MarketClosing",
      "type": "event"
    },
    {
      "anonymous": false,
      "inputs": [
        {
          "indexed": false,
          "internalType": "bool",
          "name": "yesWins",
          "type": "bool"
        },
        {
          "indexed": false,
          "internalType": "bool",
          "name": "tie",
          "type": "bool"
        }
      ],
      "name": "MarketSettled",
      "type": "event"
    },
    {
      "anonymous": false,
      "inputs": [
        {
          "indexed": true,
          "internalType": "address",
          "name": "previousOwner",
          "type": "address"
        },
        {
          "indexed": true,
          "internalType": "address",
          "name": "newOwner",
          "type": "address"
        }
      ],
      "name": "OwnershipTransferred",
      "type": "event"
    },
    {
      "anonymous": false,
      "inputs": [
        {
          "indexed": true,
          "internalType": "address",
          "name": "user",
          "type": "address"
        },
        {
          "indexed": false,
          "internalType": "uint256",
          "name": "side",
          "type": "uint256"
        },
        {
          "indexed": false,
          "internalType": "uint256",
          "name": "sharesIn",
          "type": "uint256"
        },
        {
          "indexed": false,
          "internalType": "uint256",
          "name": "usdtOut",
          "type": "uint256"
        }
      ],
      "name": "Sold",
      "type": "event"
    },
    {
      "anonymous": false,
      "inputs": [
        {
          "indexed": true,
          "internalType": "address",
          "name": "operator",
          "type": "address"
        },
        {
          "indexed": true,
          "internalType": "address",
          "name": "from",
          "type": "address"
        },
        {
          "indexed": true,
          "internalType": "address",
          "name": "to",
          "type": "address"
        },
        {
          "indexed": false,
          "internalType": "uint256[]",
          "name": "ids",
          "type": "uint256[]"
        },
        {
          "indexed": false,
          "internalType": "uint256[]",
          "name": "values",
          "type": "uint256[]"
        }
      ],
      "name": "TransferBatch",
      "type": "event"
    },
    {
      "anonymous": false,
      "inputs": [
        {
          "indexed": true,
          "internalType": "address",
          "name": "operator",
          "type": "address"
        },
        {
          "indexed": true,
          "internalType": "address",
          "name": "from",
          "type": "address"
        },
        {
          "indexed": true,
          "internalType": "address",
          "name": "to",
          "type": "address"
        },
        {
          "indexed": false,
          "internalType": "uint256",
          "name": "id",
          "type": "uint256"
        },
        {
          "indexed": false,
          "internalType": "uint256",
          "name": "value",
          "type": "uint256"
        }
      ],
      "name": "TransferSingle",
      "type": "event"
    },
    {
      "anonymous": false,
      "inputs": [
        {
          "indexed": false,
          "internalType": "string",
          "name": "value",
          "type": "string"
        },
        {
          "indexed": true,
          "internalType": "uint256",
          "name": "id",
          "type": "uint256"
        }
      ],
      "name": "URI",
      "type": "event"
    },
    {
      "inputs": [],
      "name": "NO",
      "outputs": [
        {
          "internalType": "uint256",
          "name": "",
          "type": "uint256"
        }
      ],
      "stateMutability": "view",
      "type": "function"
    },
    {
      "inputs": [],
      "name": "STATUS_CLOSING",
      "outputs": [
        {
          "internalType": "uint8",
          "name": "",
          "type": "uint8"
        }
      ],
      "stateMutability": "view",
      "type": "function"
    },
    {
      "inputs": [],
      "name": "STATUS_OPEN",
      "outputs": [
        {
          "internalType": "uint8",
          "name": "",
          "type": "uint8"
        }
      ],
      "stateMutability": "view",
      "type": "function"
    },
    {
      "inputs": [],
      "name": "STATUS_SETTLED",
      "outputs": [
        {
          "internalType": "uint8",
          "name": "",
          "type": "uint8"
        }
      ],
      "stateMutability": "view",
      "type": "function"
    },
    {
      "inputs": [],
      "name": "YES",
      "outputs": [
        {
          "internalType": "uint256",
          "name": "",
          "type": "uint256"
        }
      ],
      "stateMutability": "view",
      "type": "function"
    },
    {
      "inputs": [
        {
          "internalType": "address",
          "name": "account",
          "type": "address"
        },
        {
          "internalType": "uint256",
          "name": "id",
          "type": "uint256"
        }
      ],
      "name": "balanceOf",
      "outputs": [
        {
          "internalType": "uint256",
          "name": "",
          "type": "uint256"
        }
      ],
      "stateMutability": "view",
      "type": "function"
    },
    {
      "inputs": [
        {
          "internalType": "address[]",
          "name": "accounts",
          "type": "address[]"
        },
        {
          "internalType": "uint256[]",
          "name": "ids",
          "type": "uint256[]"
        }
      ],
      "name": "balanceOfBatch",
      "outputs": [
        {
          "internalType": "uint256[]",
          "name": "",
          "type": "uint256[]"
        }
      ],
      "stateMutability": "view",
      "type": "function"
    },
    {
      "inputs": [
        {
          "internalType": "uint256",
          "name": "side",
          "type": "uint256"
        },
        {
          "internalType": "uint256",
          "name": "usdtAmount",
          "type": "uint256"
        }
      ],
      "name": "buy",
      "outputs": [],
      "stateMutability": "nonpayable",
      "type": "function"
    },
    {
      "inputs": [],
      "name": "claim",
      "outputs": [],
      "stateMutability": "nonpayable",
      "type": "function"
    },
    {
      "inputs": [
        {
          "internalType": "address",
          "name": "",
          "type": "address"
        }
      ],
      "name": "claimed",
      "outputs": [
        {
          "internalType": "bool",
          "name": "",
          "type": "bool"
        }
      ],
      "stateMutability": "view",
      "type": "function"
    },
    {
      "inputs": [],
      "name": "closingTimestamp",
      "outputs": [
        {
          "internalType": "uint256",
          "name": "",
          "type": "uint256"
        }
      ],
      "stateMutability": "view",
      "type": "function"
    },
    {
      "inputs": [],
      "name": "createdAt",
      "outputs": [
        {
          "internalType": "uint256",
          "name": "",
          "type": "uint256"
        }
      ],
      "stateMutability": "view",
      "type": "function"
    },
    {
      "inputs": [],
      "name": "creator",
      "outputs": [
        {
          "internalType": "address",
          "name": "",
          "type": "address"
        }
      ],
      "stateMutability": "view",
      "type": "function"
    },
    {
      "inputs": [],
      "name": "description",
      "outputs": [
        {
          "internalType": "string",
          "name": "",
          "type": "string"
        }
      ],
      "stateMutability": "view",
      "type": "function"
    },
    {
      "inputs": [
        {
          "internalType": "address",
          "name": "user",
          "type": "address"
        }
      ],
      "name": "getClaimAmount",
      "outputs": [
        {
          "internalType": "uint256",
          "name": "",
          "type": "uint256"
        }
      ],
      "stateMutability": "view",
      "type": "function"
    },
    {
      "inputs": [],
      "name": "getConfidence",
      "outputs": [
        {
          "internalType": "uint256",
          "name": "",
          "type": "uint256"
        }
      ],
      "stateMutability": "view",
      "type": "function"
    },
    {
      "inputs": [],
      "name": "getTVL",
      "outputs": [
        {
          "internalType": "uint256",
          "name": "",
          "type": "uint256"
        }
      ],
      "stateMutability": "view",
      "type": "function"
    },
    {
      "inputs": [
        {
          "internalType": "address",
          "name": "user",
          "type": "address"
        }
      ],
      "name": "getUserPosition",
      "outputs": [
        {
          "internalType": "uint256",
          "name": "yesBal",
          "type": "uint256"
        },
        {
          "internalType": "uint256",
          "name": "noBal",
          "type": "uint256"
        },
        {
          "internalType": "uint256",
          "name": "yesValueUSDT",
          "type": "uint256"
        },
        {
          "internalType": "uint256",
          "name": "noValueUSDT",
          "type": "uint256"
        }
      ],
      "stateMutability": "view",
      "type": "function"
    },
    {
      "inputs": [
        {
          "internalType": "address",
          "name": "",
          "type": "address"
        }
      ],
      "name": "hasParticipated",
      "outputs": [
        {
          "internalType": "bool",
          "name": "",
          "type": "bool"
        }
      ],
      "stateMutability": "view",
      "type": "function"
    },
    {
      "inputs": [],
      "name": "initiateClose",
      "outputs": [],
      "stateMutability": "nonpayable",
      "type": "function"
    },
    {
      "inputs": [
        {
          "internalType": "address",
          "name": "account",
          "type": "address"
        },
        {
          "internalType": "address",
          "name": "operator",
          "type": "address"
        }
      ],
      "name": "isApprovedForAll",
      "outputs": [
        {
          "internalType": "bool",
          "name": "",
          "type": "bool"
        }
      ],
      "stateMutability": "view",
      "type": "function"
    },
    {
      "inputs": [],
      "name": "isClosed",
      "outputs": [
        {
          "internalType": "bool",
          "name": "",
          "type": "bool"
        }
      ],
      "stateMutability": "view",
      "type": "function"
    },
    {
      "inputs": [],
      "name": "isTie",
      "outputs": [
        {
          "internalType": "bool",
          "name": "",
          "type": "bool"
        }
      ],
      "stateMutability": "view",
      "type": "function"
    },
    {
      "inputs": [],
      "name": "noSupply",
      "outputs": [
        {
          "internalType": "uint256",
          "name": "",
          "type": "uint256"
        }
      ],
      "stateMutability": "view",
      "type": "function"
    },
    {
      "inputs": [],
      "name": "owner",
      "outputs": [
        {
          "internalType": "address",
          "name": "",
          "type": "address"
        }
      ],
      "stateMutability": "view",
      "type": "function"
    },
    {
      "inputs": [],
      "name": "participantCount",
      "outputs": [
        {
          "internalType": "uint256",
          "name": "",
          "type": "uint256"
        }
      ],
      "stateMutability": "view",
      "type": "function"
    },
    {
      "inputs": [],
      "name": "question",
      "outputs": [
        {
          "internalType": "string",
          "name": "",
          "type": "string"
        }
      ],
      "stateMutability": "view",
      "type": "function"
    },
    {
      "inputs": [],
      "name": "renounceOwnership",
      "outputs": [],
      "stateMutability": "nonpayable",
      "type": "function"
    },
    {
      "inputs": [
        {
          "internalType": "address",
          "name": "from",
          "type": "address"
        },
        {
          "internalType": "address",
          "name": "to",
          "type": "address"
        },
        {
          "internalType": "uint256[]",
          "name": "ids",
          "type": "uint256[]"
        },
        {
          "internalType": "uint256[]",
          "name": "values",
          "type": "uint256[]"
        },
        {
          "internalType": "bytes",
          "name": "data",
          "type": "bytes"
        }
      ],
      "name": "safeBatchTransferFrom",
      "outputs": [],
      "stateMutability": "nonpayable",
      "type": "function"
    },
    {
      "inputs": [
        {
          "internalType": "address",
          "name": "from",
          "type": "address"
        },
        {
          "internalType": "address",
          "name": "to",
          "type": "address"
        },
        {
          "internalType": "uint256",
          "name": "id",
          "type": "uint256"
        },
        {
          "internalType": "uint256",
          "name": "value",
          "type": "uint256"
        },
        {
          "internalType": "bytes",
          "name": "data",
          "type": "bytes"
        }
      ],
      "name": "safeTransferFrom",
      "outputs": [],
      "stateMutability": "nonpayable",
      "type": "function"
    },
    {
      "inputs": [
        {
          "internalType": "uint256",
          "name": "side",
          "type": "uint256"
        },
        {
          "internalType": "uint256",
          "name": "shares",
          "type": "uint256"
        }
      ],
      "name": "sell",
      "outputs": [],
      "stateMutability": "nonpayable",
      "type": "function"
    },
    {
      "inputs": [
        {
          "internalType": "address",
          "name": "operator",
          "type": "address"
        },
        {
          "internalType": "bool",
          "name": "approved",
          "type": "bool"
        }
      ],
      "name": "setApprovalForAll",
      "outputs": [],
      "stateMutability": "nonpayable",
      "type": "function"
    },
    {
      "inputs": [],
      "name": "settle",
      "outputs": [],
      "stateMutability": "nonpayable",
      "type": "function"
    },
    {
      "inputs": [],
      "name": "settledYesWins",
      "outputs": [
        {
          "internalType": "bool",
          "name": "",
          "type": "bool"
        }
      ],
      "stateMutability": "view",
      "type": "function"
    },
    {
      "inputs": [],
      "name": "status",
      "outputs": [
        {
          "internalType": "uint8",
          "name": "",
          "type": "uint8"
        }
      ],
      "stateMutability": "view",
      "type": "function"
    },
    {
      "inputs": [
        {
          "internalType": "bytes4",
          "name": "interfaceId",
          "type": "bytes4"
        }
      ],
      "name": "supportsInterface",
      "outputs": [
        {
          "internalType": "bool",
          "name": "",
          "type": "bool"
        }
      ],
      "stateMutability": "view",
      "type": "function"
    },
    {
      "inputs": [],
      "name": "timeUntilSettlement",
      "outputs": [
        {
          "internalType": "uint256",
          "name": "",
          "type": "uint256"
        }
      ],
      "stateMutability": "view",
      "type": "function"
    },
    {
      "inputs": [],
      "name": "totalVolume",
      "outputs": [
        {
          "internalType": "uint256",
          "name": "",
          "type": "uint256"
        }
      ],
      "stateMutability": "view",
      "type": "function"
    },
    {
      "inputs": [
        {
          "internalType": "address",
          "name": "newOwner",
          "type": "address"
        }
      ],
      "name": "transferOwnership",
      "outputs": [],
      "stateMutability": "nonpayable",
      "type": "function"
    },
    {
      "inputs": [],
      "name": "treasury",
      "outputs": [
        {
          "internalType": "address",
          "name": "",
          "type": "address"
        }
      ],
      "stateMutability": "view",
      "type": "function"
    },
    {
      "inputs": [],
      "name": "treasuryB",
      "outputs": [
        {
          "internalType": "address",
          "name": "",
          "type": "address"
        }
      ],
      "stateMutability": "view",
      "type": "function"
    },
    {
      "inputs": [
        {
          "internalType": "uint256",
          "name": "",
          "type": "uint256"
        }
      ],
      "name": "uri",
      "outputs": [
        {
          "internalType": "string",
          "name": "",
          "type": "string"
        }
      ],
      "stateMutability": "view",
      "type": "function"
    },
    {
      "inputs": [],
      "name": "usdt",
      "outputs": [
        {
          "internalType": "address",
          "name": "",
          "type": "address"
        }
      ],
      "stateMutability": "view",
      "type": "function"
    },
    {
      "inputs": [],
      "name": "yesSupply",
      "outputs": [
        {
          "internalType": "uint256",
          "name": "",
          "type": "uint256"
        }
      ],
      "stateMutability": "view",
      "type": "function"
    }
  ],
  "bytecode": "0x6101006040523480156200001257600080fd5b5060405162002c8b38038062002c8b83398101604081905262000035916200022c565b60408051602081019091526000815284906200005181620000e3565b5060016003556001600160a01b0381166200008657604051631e4fbdf760e01b81526000600482015260240160405180910390fd5b6200009181620000f5565b506005620000a0878262000370565b506006620000af868262000370565b506001600160a01b0393841660805291831660a052821660c0521660e05250506009805460ff1916905542600e556200043c565b6002620000f1828262000370565b5050565b600480546001600160a01b038381166001600160a01b0319831681179093556040519116919082907f8be0079c531659141344cd1fd0a4f28419497f9722a3daafe3b4186f6b6457e090600090a35050565b634e487b7160e01b600052604160045260246000fd5b600082601f8301126200016f57600080fd5b81516001600160401b03808211156200018c576200018c62000147565b604051601f8301601f19908116603f01168101908282118183101715620001b757620001b762000147565b8160405283815260209250866020858801011115620001d557600080fd5b600091505b83821015620001f95785820183015181830184015290820190620001da565b6000602085830101528094505050505092915050565b80516001600160a01b03811681146200022757600080fd5b919050565b60008060008060008060c087890312156200024657600080fd5b86516001600160401b03808211156200025e57600080fd5b6200026c8a838b016200015d565b975060208901519150808211156200028357600080fd5b506200029289828a016200015d565b955050620002a3604088016200020f565b9350620002b3606088016200020f565b9250620002c3608088016200020f565b9150620002d360a088016200020f565b90509295509295509295565b600181811c90821680620002f457607f821691505b6020821081036200031557634e487b7160e01b600052602260045260246000fd5b50919050565b601f8211156200036b576000816000526020600020601f850160051c81016020861015620003465750805b601f850160051c820191505b81811015620003675782815560010162000352565b5050505b505050565b81516001600160401b038111156200038c576200038c62000147565b620003a4816200039d8454620002df565b846200031b565b602080601f831160018114620003dc5760008415620003c35750858301515b600019600386901b1c1916600185901b17855562000367565b600085815260208120601f198616915b828110156200040d57888601518255948401946001909101908401620003ec565b50858210156200042c5787850151600019600388901b60f8161c191681555b5050505050600190811b01905550565b60805160a05160c05160e0516127ac620004df600039600081816103cf0152818161104a015261158301526000818161046201528181610ff0015261152901526000818161038e01528181610b9201528181610eae01528181610f7401528181610fce0152818161102801528181611473015281816114ad0152818161150701526115610152600081816102c601528181610f9601526114cf01526127ac6000f3fe608060405234801561001057600080fd5b50600436106102735760003560e01c806361d027b311610151578063b4fb3ee3116100c3578063d6febde811610087578063d6febde81461055d578063d79875eb14610570578063dde070e814610583578063e985e9c514610596578063f242432a146105a9578063f2fde38b146105bc57600080fd5b8063b4fb3ee3146104f4578063bb25188a14610517578063c2b6b58c1461051f578063c884ef8314610531578063cf09e0d01461055457600080fd5b80637f785d5e116101155780637f785d5e146104a55780638da5cb5b146104ae57806397b3fcaa146104bf578063a22cb465146104c7578063b1e25148146104da578063b2449d65146104ec57600080fd5b806361d027b31461045d57806367e9d24b14610484578063715018a61461048d5780637284e4161461049557806378191b6a1461049d57600080fd5b80632eb2c2d6116101ea5780634d0c67ba116101ae5780634d0c67ba146103ca5780634e1273f4146103f15780634e71d92d146104115780635b7c2dad146104195780635c9979151461044c5780635f81a57c1461045457600080fd5b80632eb2c2d6146103765780632f48ab7d1461038957806333240587146103b0578063362f04c0146103b95780633fad9ae0146103c257600080fd5b80630f75cc561161023c5780630f75cc56146103285780630fee743f1461034257806311da60b41461034a5780631e540ed014610354578063200d2ed21461036157806324f8515b1461036e57600080fd5b8062fdd58e1461027857806301ffc9a71461029e57806302d05d3f146102c15780630d483442146103005780630e89341c14610308575b600080fd5b61028b6102863660046120e2565b6105cf565b6040519081526020015b60405180910390f35b6102b16102ac366004612122565b6105f7565b6040519015158152602001610295565b6102e87f000000000000000000000000000000000000000000000000000000000000000081565b6040516001600160a01b039091168152602001610295565b61028b600181565b61031b610316366004612146565b610647565b60405161029591906121a5565b610330600181565b60405160ff9091168152602001610295565b61028b6106db565b610352610709565b005b600b546102b19060ff1681565b6009546103309060ff1681565b610330600081565b610352610384366004612302565b61087c565b6102e87f000000000000000000000000000000000000000000000000000000000000000081565b61028b600a5481565b61028b600d5481565b61031b6108e3565b6102e87f000000000000000000000000000000000000000000000000000000000000000081565b6104046103ff3660046123ac565b610971565b60405161029591906124a8565b610352610a3e565b61042c6104273660046124bb565b610bfd565b604080519485526020850193909352918301526060820152608001610295565b610330600281565b61028b600c5481565b6102e87f000000000000000000000000000000000000000000000000000000000000000081565b61028b60075481565b610352610c87565b61031b610c99565b610352610ca6565b61028b60085481565b6004546001600160a01b03166102e8565b61028b610d49565b6103526104d53660046124d6565b610d5f565b600b546102b190610100900460ff1681565b61028b600081565b6102b16105023660046124bb565b600f6020526000908152604090205460ff1681565b61028b610d6e565b6009546102b190610100900460ff1681565b6102b161053f3660046124bb565b60106020526000908152604090205460ff1681565b61028b600e5481565b61035261056b366004612512565b610dbd565b61035261057e366004612512565b6111cf565b61028b6105913660046124bb565b6115ff565b6102b16105a4366004612534565b611724565b6103526105b7366004612567565b611752565b6103526105ca3660046124bb565b6117b1565b6000818152602081815260408083206001600160a01b03861684529091529020545b92915050565b60006001600160e01b03198216636cdb3d1360e11b148061062857506001600160e01b031982166303a24d0760e21b145b806105f157506301ffc9a760e01b6001600160e01b03198316146105f1565b606060028054610656906125cc565b80601f0160208091040260200160405190810160405280929190818152602001828054610682906125cc565b80156106cf5780601f106106a4576101008083540402835291602001916106cf565b820191906000526020600020905b8154815290600101906020018083116106b257829003601f168201915b50505050509050919050565b60006106e56117ef565b6127106106f061180b565b6106fa919061261c565b6107049190612633565b905090565b60095460ff166001146107545760405162461bcd60e51b815260206004820152600e60248201526d4e6f7420696e20636c6f73696e6760901b60448201526064015b60405180910390fd5b621baf80600a546107659190612655565b4210156107a75760405162461bcd60e51b815260206004820152601060248201526f11195b185e481b9bdd081c185cdcd95960821b604482015260640161074b565b60006107b16117ef565b6127106107bc61180b565b6107c6919061261c565b6107d09190612633565b90506113888111156107ef57600b805461ffff19166001179055610819565b61138881101561080957600b805461ffff19169055610819565b600b805461ffff19166101001790555b6009805460ff19166002179055600b546040517f104244e56ad7ca92c31b970ad0ec1a1e02e3dfd8917d5961b62a9a39fb338b9a916108719160ff828116926101009004169091151582521515602082015260400190565b60405180910390a150565b336001600160a01b038616811480159061089d575061089b8682611724565b155b156108ce5760405163711bec9160e11b81526001600160a01b0380831660048301528716602482015260440161074b565b6108db8686868686611828565b505050505050565b600580546108f0906125cc565b80601f016020809104026020016040519081016040528092919081815260200182805461091c906125cc565b80156109695780601f1061093e57610100808354040283529160200191610969565b820191906000526020600020905b81548152906001019060200180831161094c57829003601f168201915b505050505081565b606081518351146109a25781518351604051635b05999160e01b81526004810192909252602482015260440161074b565b6000835167ffffffffffffffff8111156109be576109be6121b8565b6040519080825280602002602001820160405280156109e7578160200160208202803683370190505b50905060005b8451811015610a3657602080820286010151610a11906020808402870101516105cf565b828281518110610a2357610a23612668565b60209081029190910101526001016109ed565b509392505050565b610a4661188f565b60095460ff16600214610a895760405162461bcd60e51b815260206004820152600b60248201526a139bdd081cd95d1d1b195960aa1b604482015260640161074b565b3360009081526010602052604090205460ff1615610adb5760405162461bcd60e51b815260206004820152600f60248201526e105b1c9958591e4818db185a5b5959608a1b604482015260640161074b565b6000610ae6336115ff565b905060008111610b2b5760405162461bcd60e51b815260206004820152601060248201526f4e6f7468696e6720746f20636c61696d60801b604482015260640161074b565b336000818152601060205260408120805460ff1916600117905590610b5090826105cf565b90506000610b5f3360016105cf565b90508115610b7357610b73336000846118b9565b8015610b8557610b85336001836118b9565b610bb96001600160a01b037f0000000000000000000000000000000000000000000000000000000000000000163385611921565b60405183815233907fd8138f8a3f377c5259ca548e70e4c2de94f129f5a11036a15b69513cba2b426a9060200160405180910390a2505050610bfb6001600355565b565b600080600080610c0e8560006105cf565b9350610c1b8560016105cf565b92506000610c276117ef565b9050610c36620f42408261261c565b610c3e61180b565b610c48908761261c565b610c529190612633565b9250610c61620f42408261261c565b610c69611985565b610c73908661261c565b610c7d9190612633565b9150509193509193565b610c8f6119a2565b610bfb60006119cf565b600680546108f0906125cc565b610cae6119a2565b60095460ff1615610cec5760405162461bcd60e51b81526020600482015260086024820152672737ba1037b832b760c11b604482015260640161074b565b6009805442600a81905561ffff199091166101011790915533907f1a69b047197797a4ff7fb4b8669f3059b64c2363ea1e42f047126bdbc7e0ae0390610d3690621baf8090612655565b60405190815260200160405180910390a2565b6000620f42406008546007546106fa9190612655565b610d6a338383611a21565b5050565b60095460009060ff16600114610d845750600090565b621baf80600a54610d959190612655565b4210610da15750600090565b42621baf80600a54610db39190612655565b610704919061267e565b610dc561188f565b60095460ff161580610ddc575060095460ff166001145b610e1c5760405162461bcd60e51b81526020600482015260116024820152704d61726b6574206e6f742061637469766560781b604482015260640161074b565b60008111610e595760405162461bcd60e51b815260206004820152600a6024820152690416d6f756e74203e20360b41b604482015260640161074b565b811580610e665750600182145b610ea15760405162461bcd60e51b815260206004820152600c60248201526b496e76616c6964207369646560a01b604482015260640161074b565b610ed66001600160a01b037f000000000000000000000000000000000000000000000000000000000000000016333084611ab7565b60095460009060ff1615610eeb576000610f03565b612710610ef960328461261c565b610f039190612633565b90506000612710610f15601e8561261c565b610f1f9190612633565b90506000612710610f3160148661261c565b610f3b9190612633565b905060008183610f4b868861267e565b610f55919061267e565b610f5f919061267e565b90508315610fbb57610fbb6001600160a01b037f0000000000000000000000000000000000000000000000000000000000000000167f000000000000000000000000000000000000000000000000000000000000000086611921565b8215611015576110156001600160a01b037f0000000000000000000000000000000000000000000000000000000000000000167f000000000000000000000000000000000000000000000000000000000000000085611921565b811561106f5761106f6001600160a01b037f0000000000000000000000000000000000000000000000000000000000000000167f000000000000000000000000000000000000000000000000000000000000000084611921565b60006110796117ef565b9050600087156110905761108b611985565b611098565b61109861180b565b9050600081836110ab620f42408761261c565b6110b5919061261c565b6110bf9190612633565b9050886110e35780600760008282546110d89190612655565b909155506110fb9050565b80600860008282546110f59190612655565b90915550505b611116338a8360405180602001604052806000815250611af6565b87600c60008282546111289190612655565b9091555050336000908152600f602052604090205460ff1661117a57336000908152600f60205260408120805460ff19166001908117909155600d805491929091611174908490612655565b90915550505b604080518a8152602081018a905290810182905233907fedba86fd2b22962d534e70ad9b0ff8730de46f636146f2bab6a72cbb1ebbcc53906060015b60405180910390a250505050505050610d6a6001600355565b6111d761188f565b60095460ff1615806111ee575060095460ff166001145b61122e5760405162461bcd60e51b81526020600482015260116024820152704d61726b6574206e6f742061637469766560781b604482015260640161074b565b6000811161126b5760405162461bcd60e51b815260206004820152600a6024820152690536861726573203e20360b41b604482015260640161074b565b8115806112785750600182145b6112b35760405162461bcd60e51b815260206004820152600c60248201526b496e76616c6964207369646560a01b604482015260640161074b565b806112be33846105cf565b10156113035760405162461bcd60e51b8152602060048201526014602482015273496e73756666696369656e742062616c616e636560601b604482015260640161074b565b600061130d6117ef565b9050600083156113245761131f611985565b61132c565b61132c61180b565b9050600061133d620f42408461261c565b611347838661261c565b6113519190612633565b9050600081116113965760405162461bcd60e51b815260206004820152601060248201526f105b5bdd5b9d081d1bdbc81cdb585b1b60821b604482015260640161074b565b60095460009060ff16156113ab5760006113c3565b6127106113b960328461261c565b6113c39190612633565b905060006127106113d5601e8561261c565b6113df9190612633565b905060006127106113f160148661261c565b6113fb9190612633565b90506000818361140b868861267e565b611415919061267e565b61141f919061267e565b905088611443578760076000828254611438919061267e565b9091555061145b9050565b8760086000828254611455919061267e565b90915550505b611466338a8a6118b9565b61149a6001600160a01b037f0000000000000000000000000000000000000000000000000000000000000000163383611921565b83156114f4576114f46001600160a01b037f0000000000000000000000000000000000000000000000000000000000000000167f000000000000000000000000000000000000000000000000000000000000000086611921565b821561154e5761154e6001600160a01b037f0000000000000000000000000000000000000000000000000000000000000000167f000000000000000000000000000000000000000000000000000000000000000085611921565b81156115a8576115a86001600160a01b037f0000000000000000000000000000000000000000000000000000000000000000167f000000000000000000000000000000000000000000000000000000000000000084611921565b84600c60008282546115ba9190612655565b9091555050604080518a8152602081018a905290810182905233907fe029f26dbcf8c42dd2f352c10214a7fc26773dc62482c6241334a0402ac09a80906060016111b6565b60095460009060ff1660021461161757506000919050565b6001600160a01b03821660009081526010602052604090205460ff161561164057506000919050565b600061164d8360006105cf565b9050600061165c8460016105cf565b600b54909150610100900460ff161561168f57620f424061167d8284612655565b6116879190612633565b949350505050565b6000620f42406008546007546116a59190612655565b6116af9190612633565b600b5490915060ff16156116fa578215806116ca5750600754155b156116da57506000949350505050565b6007546116e7828561261c565b6116f19190612633565b95945050505050565b8115806117075750600854155b1561171757506000949350505050565b6008546116e7828461261c565b6001600160a01b03918216600090815260016020908152604080832093909416825291909152205460ff1690565b336001600160a01b038616811480159061177357506117718682611724565b155b156117a45760405163711bec9160e11b81526001600160a01b0380831660048301528716602482015260440161074b565b6108db8686868686611b53565b6117b96119a2565b6001600160a01b0381166117e357604051631e4fbdf760e01b81526000600482015260240161074b565b6117ec816119cf565b50565b60006117f9611985565b61180161180b565b6107049190612655565b600061181b620f4240600161261c565b6007546107049190612655565b6001600160a01b03841661185257604051632bfa23e760e11b81526000600482015260240161074b565b6001600160a01b03851661187b57604051626a0d4560e21b81526000600482015260240161074b565b6118888585858585611be1565b5050505050565b6002600354036118b257604051633ee5aeb560e01b815260040160405180910390fd5b6002600355565b6001600160a01b0383166118e257604051626a0d4560e21b81526000600482015260240161074b565b604080516001808252602082018590528183019081526060820184905260a0820190925260006080820181815291929161188891879185908590611be1565b6040516001600160a01b0383811660248301526044820183905261198091859182169063a9059cbb906064015b604051602081830303815290604052915060e01b6020820180516001600160e01b038381831617835250505050611c34565b505050565b6000611995620f4240600161261c565b6008546107049190612655565b6004546001600160a01b03163314610bfb5760405163118cdaa760e01b815233600482015260240161074b565b600480546001600160a01b038381166001600160a01b0319831681179093556040519116919082907f8be0079c531659141344cd1fd0a4f28419497f9722a3daafe3b4186f6b6457e090600090a35050565b6001600160a01b038216611a4a5760405162ced3e160e81b81526000600482015260240161074b565b6001600160a01b03838116600081815260016020908152604080832094871680845294825291829020805460ff191686151590811790915591519182527f17307eab39ab6107e8899845ad3d59bd9653f200f220920489ca2b5937696c31910160405180910390a3505050565b6040516001600160a01b038481166024830152838116604483015260648201839052611af09186918216906323b872dd9060840161194e565b50505050565b6001600160a01b038416611b2057604051632bfa23e760e11b81526000600482015260240161074b565b604080516001808252602082018690528183019081526060820185905260808201909252906108db600087848487611be1565b6001600160a01b038416611b7d57604051632bfa23e760e11b81526000600482015260240161074b565b6001600160a01b038516611ba657604051626a0d4560e21b81526000600482015260240161074b565b60408051600180825260208201869052818301908152606082018590526080820190925290611bd88787848487611be1565b50505050505050565b611bed85858585611ca5565b6001600160a01b038416156118885782513390600103611c265760208481015190840151611c1f838989858589611eb9565b50506108db565b6108db818787878787611fdd565b600080602060008451602086016000885af180611c57576040513d6000823e3d81fd5b50506000513d91508115611c6f578060011415611c7c565b6001600160a01b0384163b155b15611af057604051635274afe760e01b81526001600160a01b038516600482015260240161074b565b8051825114611cd45781518151604051635b05999160e01b81526004810192909252602482015260440161074b565b3360005b8351811015611dda576020818102858101820151908501909101516001600160a01b03881615611d8b576000828152602081815260408083206001600160a01b038c16845290915290205481811015611d64576040516303dee4c560e01b81526001600160a01b038a16600482015260248101829052604481018390526064810184905260840161074b565b6000838152602081815260408083206001600160a01b038d16845290915290209082900390555b6001600160a01b03871615611dd0576000828152602081815260408083206001600160a01b038b16845290915281208054839290611dca908490612655565b90915550505b5050600101611cd8565b508251600103611e5b5760208301516000906020840151909150856001600160a01b0316876001600160a01b0316846001600160a01b03167fc3d58168c5ae7397731d063d5bbf3d657854427343f4c083240f7aacaa2d0f628585604051611e4c929190918252602082015260400190565b60405180910390a45050611888565b836001600160a01b0316856001600160a01b0316826001600160a01b03167f4a39dc06d4c0dbc64b70af90fd698a233a518aa5d07e595d983b8c0526c8f7fb8686604051611eaa929190612691565b60405180910390a45050505050565b6001600160a01b0384163b156108db5760405163f23a6e6160e01b81526001600160a01b0385169063f23a6e6190611efd90899089908890889088906004016126b6565b6020604051808303816000875af1925050508015611f38575060408051601f3d908101601f19168201909252611f35918101906126fb565b60015b611fa1573d808015611f66576040519150601f19603f3d011682016040523d82523d6000602084013e611f6b565b606091505b508051600003611f9957604051632bfa23e760e11b81526001600160a01b038616600482015260240161074b565b805181602001fd5b6001600160e01b0319811663f23a6e6160e01b14611bd857604051632bfa23e760e11b81526001600160a01b038616600482015260240161074b565b6001600160a01b0384163b156108db5760405163bc197c8160e01b81526001600160a01b0385169063bc197c81906120219089908990889088908890600401612718565b6020604051808303816000875af192505050801561205c575060408051601f3d908101601f19168201909252612059918101906126fb565b60015b61208a573d808015611f66576040519150601f19603f3d011682016040523d82523d6000602084013e611f6b565b6001600160e01b0319811663bc197c8160e01b14611bd857604051632bfa23e760e11b81526001600160a01b038616600482015260240161074b565b80356001600160a01b03811681146120dd57600080fd5b919050565b600080604083850312156120f557600080fd5b6120fe836120c6565b946020939093013593505050565b6001600160e01b0319811681146117ec57600080fd5b60006020828403121561213457600080fd5b813561213f8161210c565b9392505050565b60006020828403121561215857600080fd5b5035919050565b6000815180845260005b8181101561218557602081850181015186830182015201612169565b506000602082860101526020601f19601f83011685010191505092915050565b60208152600061213f602083018461215f565b634e487b7160e01b600052604160045260246000fd5b604051601f8201601f1916810167ffffffffffffffff811182821017156121f7576121f76121b8565b604052919050565b600067ffffffffffffffff821115612219576122196121b8565b5060051b60200190565b600082601f83011261223457600080fd5b81356020612249612244836121ff565b6121ce565b8083825260208201915060208460051b87010193508684111561226b57600080fd5b602086015b848110156122875780358352918301918301612270565b509695505050505050565b600082601f8301126122a357600080fd5b813567ffffffffffffffff8111156122bd576122bd6121b8565b6122d0601f8201601f19166020016121ce565b8181528460208386010111156122e557600080fd5b816020850160208301376000918101602001919091529392505050565b600080600080600060a0868803121561231a57600080fd5b612323866120c6565b9450612331602087016120c6565b9350604086013567ffffffffffffffff8082111561234e57600080fd5b61235a89838a01612223565b9450606088013591508082111561237057600080fd5b61237c89838a01612223565b9350608088013591508082111561239257600080fd5b5061239f88828901612292565b9150509295509295909350565b600080604083850312156123bf57600080fd5b823567ffffffffffffffff808211156123d757600080fd5b818501915085601f8301126123eb57600080fd5b813560206123fb612244836121ff565b82815260059290921b8401810191818101908984111561241a57600080fd5b948201945b8386101561243f57612430866120c6565b8252948201949082019061241f565b9650508601359250508082111561245557600080fd5b5061246285828601612223565b9150509250929050565b60008151808452602080850194506020840160005b8381101561249d57815187529582019590820190600101612481565b509495945050505050565b60208152600061213f602083018461246c565b6000602082840312156124cd57600080fd5b61213f826120c6565b600080604083850312156124e957600080fd5b6124f2836120c6565b91506020830135801515811461250757600080fd5b809150509250929050565b6000806040838503121561252557600080fd5b50508035926020909101359150565b6000806040838503121561254757600080fd5b612550836120c6565b915061255e602084016120c6565b90509250929050565b600080600080600060a0868803121561257f57600080fd5b612588866120c6565b9450612596602087016120c6565b93506040860135925060608601359150608086013567ffffffffffffffff8111156125c057600080fd5b61239f88828901612292565b600181811c908216806125e057607f821691505b60208210810361260057634e487b7160e01b600052602260045260246000fd5b50919050565b634e487b7160e01b600052601160045260246000fd5b80820281158282048414176105f1576105f1612606565b60008261265057634e487b7160e01b600052601260045260246000fd5b500490565b808201808211156105f1576105f1612606565b634e487b7160e01b600052603260045260246000fd5b818103818111156105f1576105f1612606565b6040815260006126a4604083018561246c565b82810360208401526116f1818561246c565b6001600160a01b03868116825285166020820152604081018490526060810183905260a0608082018190526000906126f09083018461215f565b979650505050505050565b60006020828403121561270d57600080fd5b815161213f8161210c565b6001600160a01b0386811682528516602082015260a0604082018190526000906127449083018661246c565b8281036060840152612756818661246c565b9050828103608084015261276a818561215f565b9897505050505050505056fea264697066735822122043b8f58b2220245227a507fc11c0304cb14e9913c3ccee85e9f32912c801266564736f6c63430008180033",
  "linkReferences": {},
  "deployedLinkReferences": {}
}