{
  "_format": "hh-sol-artifact-1",
  "contractName": "MockReentrantSettleToken",
  "sourceName": "contracts/test/MockAttackTokens.sol",
  "abi": [
    {
      "inputs": [],
      "stateMutability": "nonpayable",
      "type": "constructor"
    },
    {
      "inputs": [
        {
          "internalType": "address",
          "name": "spender",
          "type": "address"
        },
        {
          "internalType": "uint256",
          "name": "allowance",
          "type": "uint256"
        },
        {
          "internalType": "uint256",
          "name": "needed",
          "type": "uint256"
        }
      ],
      "name": "ERC20InsufficientAllowance",
      "type": "error"
    },
    {
      "inputs": [
        {
          "internalType": "address",
          "name": "sender",
          "type": "address"
        },
        {
          "internalType": "uint256",
          "name": "balance",
          "type": "uint256"
        },
        {
          "internalType": "uint256",
          "name": "needed",
          "type": "uint256"
        }
      ],
      "name": "ERC20InsufficientBalance",
      "type": "error"
    },
    {
      "inputs": [
        {
          "internalType": "address",
          "name": "approver",
          "type": "address"
        }
      ],
      "name": "ERC20InvalidApprover",
      "type": "error"
    },
    {
      "inputs": [
        {
          "internalType": "address",
          "name": "receiver",
          "type": "address"
        }
      ],
      "name": "ERC20InvalidReceiver",
      "type": "error"
    },
    {
      "inputs": [
        {
          "internalType": "address",
          "name": "sender",
          "type": "address"
        }
      ],
      "name": "ERC20InvalidSender",
      "type": "error"
    },
    {
      "inputs": [
        {
          "internalType": "address",
          "name": "spender",
          "type": "address"
        }
      ],
      "name": "ERC20InvalidSpender",
      "type": "error"
    },
    {
      "anonymous": false,
      "inputs": [
        {
          "indexed": true,
          "internalType": "address",
          "name": "owner",
          "type": "address"
        },
        {
          "indexed": true,
          "internalType": "address",
          "name": "spender",
          "type": "address"
        },
        {
          "indexed": false,
          "internalType": "uint256",
          "name": "value",
          "type": "uint256"
        }
      ],
      "name": "Approval",
      "type": "event"
    },
    {
      "anonymous": false,
      "inputs": [
        {
          "indexed": true,
          "internalType": "address",
          "name": "from",
          "type": "address"
        },
        {
          "indexed": true,
          "internalType": "address",
          "name": "to",
          "type": "address"
        },
        {
          "indexed": false,
          "internalType": "uint256",
          "name": "value",
          "type": "uint256"
        }
      ],
      "name": "Transfer",
      "type": "event"
    },
    {
      "inputs": [
        {
          "internalType": "address",
          "name": "owner",
          "type": "address"
        },
        {
          "internalType": "address",
          "name": "spender",
          "type": "address"
        }
      ],
      "name": "allowance",
      "outputs": [
        {
          "internalType": "uint256",
          "name": "",
          "type": "uint256"
        }
      ],
      "stateMutability": "view",
      "type": "function"
    },
    {
      "inputs": [
        {
          "internalType": "address",
          "name": "spender",
          "type": "address"
        },
        {
          "internalType": "uint256",
          "name": "value",
          "type": "uint256"
        }
      ],
      "name": "approve",
      "outputs": [
        {
          "internalType": "bool",
          "name": "",
          "type": "bool"
        }
      ],
      "stateMutability": "nonpayable",
      "type": "function"
    },
    {
      "inputs": [
        {
          "internalType": "address",
          "name": "account",
          "type": "address"
        }
      ],
      "name": "balanceOf",
      "outputs": [
        {
          "internalType": "uint256",
          "name": "",
          "type": "uint256"
        }
      ],
      "stateMutability": "view",
      "type": "function"
    },
    {
      "inputs": [],
      "name": "decimals",
      "outputs": [
        {
          "internalType": "uint8",
          "name": "",
          "type": "uint8"
        }
      ],
      "stateMutability": "view",
      "type": "function"
    },
    {
      "inputs": [
        {
          "internalType": "address",
          "name": "to",
          "type": "address"
        },
        {
          "internalType": "uint256",
          "name": "amount",
          "type": "uint256"
        }
      ],
      "name": "mint",
      "outputs": [],
      "stateMutability": "nonpayable",
      "type": "function"
    },
    {
      "inputs": [],
      "name": "name",
      "outputs": [
        {
          "internalType": "string",
          "name": "",
          "type": "string"
        }
      ],
      "stateMutability": "view",
      "type": "function"
    },
    {
      "inputs": [],
      "name": "reentrantAmount",
      "outputs": [
        {
          "internalType": "uint256",
          "name": "",
          "type": "uint256"
        }
      ],
      "stateMutability": "view",
      "type": "function"
    },
    {
      "inputs": [
        {
          "internalType": "address",
          "name": "_vault",
          "type": "address"
        },
        {
          "internalType": "address",
          "name": "_settlementCaller",
          "type": "address"
        },
        {
          "internalType": "address",
          "name": "_target",
          "type": "address"
        },
        {
          "internalType": "uint256",
          "name": "_amount",
          "type": "uint256"
        }
      ],
      "name": "setVaultAndTarget",
      "outputs": [],
      "stateMutability": "nonpayable",
      "type": "function"
    },
    {
      "inputs": [],
      "name": "settlementCaller",
      "outputs": [
        {
          "internalType": "address",
          "name": "",
          "type": "address"
        }
      ],
      "stateMutability": "view",
      "type": "function"
    },
    {
      "inputs": [],
      "name": "symbol",
      "outputs": [
        {
          "internalType": "string",
          "name": "",
          "type": "string"
        }
      ],
      "stateMutability": "view",
      "type": "function"
    },
    {
      "inputs": [],
      "name": "target",
      "outputs": [
        {
          "internalType": "address",
          "name": "",
          "type": "address"
        }
      ],
      "stateMutability": "view",
      "type": "function"
    },
    {
      "inputs": [],
      "name": "totalSupply",
      "outputs": [
        {
          "internalType": "uint256",
          "name": "",
          "type": "uint256"
        }
      ],
      "stateMutability": "view",
      "type": "function"
    },
    {
      "inputs": [
        {
          "internalType": "address",
          "name": "to",
          "type": "address"
        },
        {
          "internalType": "uint256",
          "name": "amount",
          "type": "uint256"
        }
      ],
      "name": "transfer",
      "outputs": [
        {
          "internalType": "bool",
          "name": "",
          "type": "bool"
        }
      ],
      "stateMutability": "nonpayable",
      "type": "function"
    },
    {
      "inputs": [
        {
          "internalType": "address",
          "name": "from",
          "type": "address"
        },
        {
          "internalType": "address",
          "name": "to",
          "type": "address"
        },
        {
          "internalType": "uint256",
          "name": "value",
          "type": "uint256"
        }
      ],
      "name": "transferFrom",
      "outputs": [
        {
          "internalType": "bool",
          "name": "",
          "type": "bool"
        }
      ],
      "stateMutability": "nonpayable",
      "type": "function"
    },
    {
      "inputs": [],
      "name": "vault",
      "outputs": [
        {
          "internalType": "address",
          "name": "",
          "type": "address"
        }
      ],
      "stateMutability": "view",
      "type": "function"
    }
  ],
  "bytecode": "0x608060405234801561001057600080fd5b506040518060400160405280601481526020017f5265656e7472616e74536574746c65546f6b656e000000000000000000000000815250604051806040016040528060068152602001655245454e545360d01b8152508160039081610075919061012b565b506004610082828261012b565b5050506101ea565b634e487b7160e01b600052604160045260246000fd5b600181811c908216806100b457607f821691505b6020821081036100d457634e487b7160e01b600052602260045260246000fd5b50919050565b601f821115610126576000816000526020600020601f850160051c810160208610156101035750805b601f850160051c820191505b818110156101225782815560010161010f565b5050505b505050565b81516001600160401b038111156101445761014461008a565b6101588161015284546100a0565b846100da565b602080601f83116001811461018d57600084156101755750858301515b600019600386901b1c1916600185901b178555610122565b600085815260208120601f198616915b828110156101bc5788860151825594840194600190910190840161019d565b50858210156101da5787850151600019600388901b60f8161c191681555b5050505050600190811b01905550565b61097e806101f96000396000f3fe608060405234801561001057600080fd5b50600436106100f55760003560e01c806395d89b4111610097578063d4b8399211610066578063d4b8399214610243578063dd62ed3e14610256578063fbfa77cf1461028f578063fd4ef977146102a257600080fd5b806395d89b41146101ad578063a797353c146101b5578063a9059cbb14610205578063b244d8181461021857600080fd5b806323b872dd116100d357806323b872dd1461014d578063313ce5671461016057806340c10f191461016f57806370a082311461018457600080fd5b806306fdde03146100fa578063095ea7b31461011857806318160ddd1461013b575b600080fd5b6101026102ab565b60405161010f9190610783565b60405180910390f35b61012b6101263660046107ee565b61033d565b604051901515815260200161010f565b6002545b60405190815260200161010f565b61012b61015b366004610818565b610357565b6040516012815260200161010f565b61018261017d3660046107ee565b61037b565b005b61013f610192366004610854565b6001600160a01b031660009081526020819052604090205490565b610102610389565b6101826101c336600461086f565b600580546001600160a01b03199081166001600160a01b0396871617909155600680548216948616949094179093556007805490931691909316179055600855565b61012b6102133660046107ee565b610398565b60065461022b906001600160a01b031681565b6040516001600160a01b03909116815260200161010f565b60075461022b906001600160a01b031681565b61013f6102643660046108ba565b6001600160a01b03918216600090815260016020908152604080832093909416825291909152205490565b60055461022b906001600160a01b031681565b61013f60085481565b6060600380546102ba906108ed565b80601f01602080910402602001604051908101604052809291908181526020018280546102e6906108ed565b80156103335780601f1061030857610100808354040283529160200191610333565b820191906000526020600020905b81548152906001019060200180831161031657829003601f168201915b5050505050905090565b60003361034b81858561044c565b60019150505b92915050565b60003361036585828561045e565b6103708585856104e1565b506001949350505050565b6103858282610540565b5050565b6060600480546102ba906108ed565b6005546000906001600160a01b0316158015906103b8575060095460ff16155b1561043b576009805460ff191660011790556005546007546008546040516315afd40960e01b81526001600160a01b03928316600482015260248101919091529116906315afd40990604401600060405180830381600087803b15801561041e57600080fd5b505af192505050801561042f575060015b506009805460ff191690555b6104458383610576565b9392505050565b6104598383836001610584565b505050565b6001600160a01b0383811660009081526001602090815260408083209386168352929052205460001981146104db57818110156104cc57604051637dc7a0d960e11b81526001600160a01b038416600482015260248101829052604481018390526064015b60405180910390fd5b6104db84848484036000610584565b50505050565b6001600160a01b03831661050b57604051634b637e8f60e11b8152600060048201526024016104c3565b6001600160a01b0382166105355760405163ec442f0560e01b8152600060048201526024016104c3565b610459838383610659565b6001600160a01b03821661056a5760405163ec442f0560e01b8152600060048201526024016104c3565b61038560008383610659565b60003361034b8185856104e1565b6001600160a01b0384166105ae5760405163e602df0560e01b8152600060048201526024016104c3565b6001600160a01b0383166105d857604051634a1406b160e11b8152600060048201526024016104c3565b6001600160a01b03808516600090815260016020908152604080832093871683529290522082905580156104db57826001600160a01b0316846001600160a01b03167f8c5be1e5ebec7d5bd14f71427d1e84f3dd0314c0f7b2291e5b200ac8c7c3b9258460405161064b91815260200190565b60405180910390a350505050565b6001600160a01b0383166106845780600260008282546106799190610927565b909155506106f69050565b6001600160a01b038316600090815260208190526040902054818110156106d75760405163391434e360e21b81526001600160a01b038516600482015260248101829052604481018390526064016104c3565b6001600160a01b03841660009081526020819052604090209082900390555b6001600160a01b03821661071257600280548290039055610731565b6001600160a01b03821660009081526020819052604090208054820190555b816001600160a01b0316836001600160a01b03167fddf252ad1be2c89b69c2b068fc378daa952ba7f163c4a11628f55a4df523b3ef8360405161077691815260200190565b60405180910390a3505050565b60006020808352835180602085015260005b818110156107b157858101830151858201604001528201610795565b506000604082860101526040601f19601f8301168501019250505092915050565b80356001600160a01b03811681146107e957600080fd5b919050565b6000806040838503121561080157600080fd5b61080a836107d2565b946020939093013593505050565b60008060006060848603121561082d57600080fd5b610836846107d2565b9250610844602085016107d2565b9150604084013590509250925092565b60006020828403121561086657600080fd5b610445826107d2565b6000806000806080858703121561088557600080fd5b61088e856107d2565b935061089c602086016107d2565b92506108aa604086016107d2565b9396929550929360600135925050565b600080604083850312156108cd57600080fd5b6108d6836107d2565b91506108e4602084016107d2565b90509250929050565b600181811c9082168061090157607f821691505b60208210810361092157634e487b7160e01b600052602260045260246000fd5b50919050565b8082018082111561035157634e487b7160e01b600052601160045260246000fdfea264697066735822122011f0e297a38b01d1821ba6c997d591de6ebf5ab7c055143a6fc0ba04ce4df4b264736f6c63430008180033",
  "linkReferences": {},
  "deployedLinkReferences": {}
}