{
  "_format": "hh-sol-artifact-1",
  "contractName": "MockReentrantToken",
  "sourceName": "contracts/test/MockAttackTokens.sol",
  "abi": [
    {
      "inputs": [],
      "stateMutability": "nonpayable",
      "type": "constructor"
    },
    {
      "inputs": [
        {
          "internalType": "address",
          "name": "spender",
          "type": "address"
        },
        {
          "internalType": "uint256",
          "name": "allowance",
          "type": "uint256"
        },
        {
          "internalType": "uint256",
          "name": "needed",
          "type": "uint256"
        }
      ],
      "name": "ERC20InsufficientAllowance",
      "type": "error"
    },
    {
      "inputs": [
        {
          "internalType": "address",
          "name": "sender",
          "type": "address"
        },
        {
          "internalType": "uint256",
          "name": "balance",
          "type": "uint256"
        },
        {
          "internalType": "uint256",
          "name": "needed",
          "type": "uint256"
        }
      ],
      "name": "ERC20InsufficientBalance",
      "type": "error"
    },
    {
      "inputs": [
        {
          "internalType": "address",
          "name": "approver",
          "type": "address"
        }
      ],
      "name": "ERC20InvalidApprover",
      "type": "error"
    },
    {
      "inputs": [
        {
          "internalType": "address",
          "name": "receiver",
          "type": "address"
        }
      ],
      "name": "ERC20InvalidReceiver",
      "type": "error"
    },
    {
      "inputs": [
        {
          "internalType": "address",
          "name": "sender",
          "type": "address"
        }
      ],
      "name": "ERC20InvalidSender",
      "type": "error"
    },
    {
      "inputs": [
        {
          "internalType": "address",
          "name": "spender",
          "type": "address"
        }
      ],
      "name": "ERC20InvalidSpender",
      "type": "error"
    },
    {
      "anonymous": false,
      "inputs": [
        {
          "indexed": true,
          "internalType": "address",
          "name": "owner",
          "type": "address"
        },
        {
          "indexed": true,
          "internalType": "address",
          "name": "spender",
          "type": "address"
        },
        {
          "indexed": false,
          "internalType": "uint256",
          "name": "value",
          "type": "uint256"
        }
      ],
      "name": "Approval",
      "type": "event"
    },
    {
      "anonymous": false,
      "inputs": [
        {
          "indexed": true,
          "internalType": "address",
          "name": "from",
          "type": "address"
        },
        {
          "indexed": true,
          "internalType": "address",
          "name": "to",
          "type": "address"
        },
        {
          "indexed": false,
          "internalType": "uint256",
          "name": "value",
          "type": "uint256"
        }
      ],
      "name": "Transfer",
      "type": "event"
    },
    {
      "inputs": [
        {
          "internalType": "address",
          "name": "owner",
          "type": "address"
        },
        {
          "internalType": "address",
          "name": "spender",
          "type": "address"
        }
      ],
      "name": "allowance",
      "outputs": [
        {
          "internalType": "uint256",
          "name": "",
          "type": "uint256"
        }
      ],
      "stateMutability": "view",
      "type": "function"
    },
    {
      "inputs": [
        {
          "internalType": "address",
          "name": "spender",
          "type": "address"
        },
        {
          "internalType": "uint256",
          "name": "value",
          "type": "uint256"
        }
      ],
      "name": "approve",
      "outputs": [
        {
          "internalType": "bool",
          "name": "",
          "type": "bool"
        }
      ],
      "stateMutability": "nonpayable",
      "type": "function"
    },
    {
      "inputs": [
        {
          "internalType": "address",
          "name": "account",
          "type": "address"
        }
      ],
      "name": "balanceOf",
      "outputs": [
        {
          "internalType": "uint256",
          "name": "",
          "type": "uint256"
        }
      ],
      "stateMutability": "view",
      "type": "function"
    },
    {
      "inputs": [],
      "name": "decimals",
      "outputs": [
        {
          "internalType": "uint8",
          "name": "",
          "type": "uint8"
        }
      ],
      "stateMutability": "view",
      "type": "function"
    },
    {
      "inputs": [
        {
          "internalType": "address",
          "name": "to",
          "type": "address"
        },
        {
          "internalType": "uint256",
          "name": "amount",
          "type": "uint256"
        }
      ],
      "name": "mint",
      "outputs": [],
      "stateMutability": "nonpayable",
      "type": "function"
    },
    {
      "inputs": [],
      "name": "name",
      "outputs": [
        {
          "internalType": "string",
          "name": "",
          "type": "string"
        }
      ],
      "stateMutability": "view",
      "type": "function"
    },
    {
      "inputs": [],
      "name": "reentrantAmount",
      "outputs": [
        {
          "internalType": "uint256",
          "name": "",
          "type": "uint256"
        }
      ],
      "stateMutability": "view",
      "type": "function"
    },
    {
      "inputs": [
        {
          "internalType": "address",
          "name": "_vault",
          "type": "address"
        },
        {
          "internalType": "address",
          "name": "_target",
          "type": "address"
        },
        {
          "internalType": "uint256",
          "name": "_amount",
          "type": "uint256"
        }
      ],
      "name": "setVaultAndTarget",
      "outputs": [],
      "stateMutability": "nonpayable",
      "type": "function"
    },
    {
      "inputs": [],
      "name": "symbol",
      "outputs": [
        {
          "internalType": "string",
          "name": "",
          "type": "string"
        }
      ],
      "stateMutability": "view",
      "type": "function"
    },
    {
      "inputs": [],
      "name": "target",
      "outputs": [
        {
          "internalType": "address",
          "name": "",
          "type": "address"
        }
      ],
      "stateMutability": "view",
      "type": "function"
    },
    {
      "inputs": [],
      "name": "totalSupply",
      "outputs": [
        {
          "internalType": "uint256",
          "name": "",
          "type": "uint256"
        }
      ],
      "stateMutability": "view",
      "type": "function"
    },
    {
      "inputs": [
        {
          "internalType": "address",
          "name": "to",
          "type": "address"
        },
        {
          "internalType": "uint256",
          "name": "amount",
          "type": "uint256"
        }
      ],
      "name": "transfer",
      "outputs": [
        {
          "internalType": "bool",
          "name": "",
          "type": "bool"
        }
      ],
      "stateMutability": "nonpayable",
      "type": "function"
    },
    {
      "inputs": [
        {
          "internalType": "address",
          "name": "from",
          "type": "address"
        },
        {
          "internalType": "address",
          "name": "to",
          "type": "address"
        },
        {
          "internalType": "uint256",
          "name": "value",
          "type": "uint256"
        }
      ],
      "name": "transferFrom",
      "outputs": [
        {
          "internalType": "bool",
          "name": "",
          "type": "bool"
        }
      ],
      "stateMutability": "nonpayable",
      "type": "function"
    },
    {
      "inputs": [],
      "name": "vault",
      "outputs": [
        {
          "internalType": "address",
          "name": "",
          "type": "address"
        }
      ],
      "stateMutability": "view",
      "type": "function"
    }
  ],
  "bytecode": "0x608060405234801561001057600080fd5b506040518060400160405280600e81526020016d2932b2b73a3930b73a2a37b5b2b760911b81525060405180604001604052806005815260200164149151539560da1b8152508160039081610065919061011b565b506004610072828261011b565b5050506101da565b634e487b7160e01b600052604160045260246000fd5b600181811c908216806100a457607f821691505b6020821081036100c457634e487b7160e01b600052602260045260246000fd5b50919050565b601f821115610116576000816000526020600020601f850160051c810160208610156100f35750805b601f850160051c820191505b81811015610112578281556001016100ff565b5050505b505050565b81516001600160401b038111156101345761013461007a565b610148816101428454610090565b846100ca565b602080601f83116001811461017d57600084156101655750858301515b600019600386901b1c1916600185901b178555610112565b600085815260208120601f198616915b828110156101ac5788860151825594840194600190910190840161018d565b50858210156101ca5787850151600019600388901b60f8161c191681555b5050505050600190811b01905550565b610908806101e96000396000f3fe608060405234801561001057600080fd5b50600436106100ea5760003560e01c806395d89b411161008c578063d4b8399211610066578063d4b8399214610200578063dd62ed3e1461022b578063fbfa77cf14610264578063fd4ef9771461027757600080fd5b806395d89b41146101a2578063a9059cbb146101aa578063c428dce1146101bd57600080fd5b806323b872dd116100c857806323b872dd14610142578063313ce5671461015557806340c10f191461016457806370a082311461017957600080fd5b806306fdde03146100ef578063095ea7b31461010d57806318160ddd14610130575b600080fd5b6100f7610280565b6040516101049190610758565b60405180910390f35b61012061011b3660046107c3565b610312565b6040519015158152602001610104565b6002545b604051908152602001610104565b6101206101503660046107ed565b61032c565b60405160128152602001610104565b6101776101723660046107c3565b610350565b005b610134610187366004610829565b6001600160a01b031660009081526020819052604090205490565b6100f761035e565b6101206101b83660046107c3565b61036d565b6101776101cb3660046107ed565b600580546001600160a01b039485166001600160a01b0319918216179091556006805493909416921691909117909155600755565b600654610213906001600160a01b031681565b6040516001600160a01b039091168152602001610104565b610134610239366004610844565b6001600160a01b03918216600090815260016020908152604080832093909416825291909152205490565b600554610213906001600160a01b031681565b61013460075481565b60606003805461028f90610877565b80601f01602080910402602001604051908101604052809291908181526020018280546102bb90610877565b80156103085780601f106102dd57610100808354040283529160200191610308565b820191906000526020600020905b8154815290600101906020018083116102eb57829003601f168201915b5050505050905090565b600033610320818585610421565b60019150505b92915050565b60003361033a858285610433565b6103458585856104b6565b506001949350505050565b61035a8282610515565b5050565b60606004805461028f90610877565b6005546000906001600160a01b03161580159061038d575060085460ff16155b15610410576008805460ff1916600117905560055460065460075460405163f3fef3a360e01b81526001600160a01b039283166004820152602481019190915291169063f3fef3a390604401600060405180830381600087803b1580156103f357600080fd5b505af1925050508015610404575060015b506008805460ff191690555b61041a838361054b565b9392505050565b61042e8383836001610559565b505050565b6001600160a01b0383811660009081526001602090815260408083209386168352929052205460001981146104b057818110156104a157604051637dc7a0d960e11b81526001600160a01b038416600482015260248101829052604481018390526064015b60405180910390fd5b6104b084848484036000610559565b50505050565b6001600160a01b0383166104e057604051634b637e8f60e11b815260006004820152602401610498565b6001600160a01b03821661050a5760405163ec442f0560e01b815260006004820152602401610498565b61042e83838361062e565b6001600160a01b03821661053f5760405163ec442f0560e01b815260006004820152602401610498565b61035a6000838361062e565b6000336103208185856104b6565b6001600160a01b0384166105835760405163e602df0560e01b815260006004820152602401610498565b6001600160a01b0383166105ad57604051634a1406b160e11b815260006004820152602401610498565b6001600160a01b03808516600090815260016020908152604080832093871683529290522082905580156104b057826001600160a01b0316846001600160a01b03167f8c5be1e5ebec7d5bd14f71427d1e84f3dd0314c0f7b2291e5b200ac8c7c3b9258460405161062091815260200190565b60405180910390a350505050565b6001600160a01b03831661065957806002600082825461064e91906108b1565b909155506106cb9050565b6001600160a01b038316600090815260208190526040902054818110156106ac5760405163391434e360e21b81526001600160a01b03851660048201526024810182905260448101839052606401610498565b6001600160a01b03841660009081526020819052604090209082900390555b6001600160a01b0382166106e757600280548290039055610706565b6001600160a01b03821660009081526020819052604090208054820190555b816001600160a01b0316836001600160a01b03167fddf252ad1be2c89b69c2b068fc378daa952ba7f163c4a11628f55a4df523b3ef8360405161074b91815260200190565b60405180910390a3505050565b60006020808352835180602085015260005b818110156107865785810183015185820160400152820161076a565b506000604082860101526040601f19601f8301168501019250505092915050565b80356001600160a01b03811681146107be57600080fd5b919050565b600080604083850312156107d657600080fd5b6107df836107a7565b946020939093013593505050565b60008060006060848603121561080257600080fd5b61080b846107a7565b9250610819602085016107a7565b9150604084013590509250925092565b60006020828403121561083b57600080fd5b61041a826107a7565b6000806040838503121561085757600080fd5b610860836107a7565b915061086e602084016107a7565b90509250929050565b600181811c9082168061088b57607f821691505b6020821081036108ab57634e487b7160e01b600052602260045260246000fd5b50919050565b8082018082111561032657634e487b7160e01b600052601160045260246000fdfea26469706673582212209795494c4c1f7d64deb45110a62bad389972d74ad96fb8a5f800c1cf10761eb164736f6c63430008180033",
  "linkReferences": {},
  "deployedLinkReferences": {}
}