{
  "_format": "hh-sol-artifact-1",
  "contractName": "MockRebasingToken",
  "sourceName": "contracts/test/MockAttackTokens.sol",
  "abi": [
    {
      "inputs": [],
      "stateMutability": "nonpayable",
      "type": "constructor"
    },
    {
      "inputs": [
        {
          "internalType": "address",
          "name": "spender",
          "type": "address"
        },
        {
          "internalType": "uint256",
          "name": "allowance",
          "type": "uint256"
        },
        {
          "internalType": "uint256",
          "name": "needed",
          "type": "uint256"
        }
      ],
      "name": "ERC20InsufficientAllowance",
      "type": "error"
    },
    {
      "inputs": [
        {
          "internalType": "address",
          "name": "sender",
          "type": "address"
        },
        {
          "internalType": "uint256",
          "name": "balance",
          "type": "uint256"
        },
        {
          "internalType": "uint256",
          "name": "needed",
          "type": "uint256"
        }
      ],
      "name": "ERC20InsufficientBalance",
      "type": "error"
    },
    {
      "inputs": [
        {
          "internalType": "address",
          "name": "approver",
          "type": "address"
        }
      ],
      "name": "ERC20InvalidApprover",
      "type": "error"
    },
    {
      "inputs": [
        {
          "internalType": "address",
          "name": "receiver",
          "type": "address"
        }
      ],
      "name": "ERC20InvalidReceiver",
      "type": "error"
    },
    {
      "inputs": [
        {
          "internalType": "address",
          "name": "sender",
          "type": "address"
        }
      ],
      "name": "ERC20InvalidSender",
      "type": "error"
    },
    {
      "inputs": [
        {
          "internalType": "address",
          "name": "spender",
          "type": "address"
        }
      ],
      "name": "ERC20InvalidSpender",
      "type": "error"
    },
    {
      "anonymous": false,
      "inputs": [
        {
          "indexed": true,
          "internalType": "address",
          "name": "owner",
          "type": "address"
        },
        {
          "indexed": true,
          "internalType": "address",
          "name": "spender",
          "type": "address"
        },
        {
          "indexed": false,
          "internalType": "uint256",
          "name": "value",
          "type": "uint256"
        }
      ],
      "name": "Approval",
      "type": "event"
    },
    {
      "anonymous": false,
      "inputs": [
        {
          "indexed": true,
          "internalType": "address",
          "name": "from",
          "type": "address"
        },
        {
          "indexed": true,
          "internalType": "address",
          "name": "to",
          "type": "address"
        },
        {
          "indexed": false,
          "internalType": "uint256",
          "name": "value",
          "type": "uint256"
        }
      ],
      "name": "Transfer",
      "type": "event"
    },
    {
      "inputs": [
        {
          "internalType": "address",
          "name": "owner",
          "type": "address"
        },
        {
          "internalType": "address",
          "name": "spender",
          "type": "address"
        }
      ],
      "name": "allowance",
      "outputs": [
        {
          "internalType": "uint256",
          "name": "",
          "type": "uint256"
        }
      ],
      "stateMutability": "view",
      "type": "function"
    },
    {
      "inputs": [
        {
          "internalType": "address",
          "name": "spender",
          "type": "address"
        },
        {
          "internalType": "uint256",
          "name": "value",
          "type": "uint256"
        }
      ],
      "name": "approve",
      "outputs": [
        {
          "internalType": "bool",
          "name": "",
          "type": "bool"
        }
      ],
      "stateMutability": "nonpayable",
      "type": "function"
    },
    {
      "inputs": [
        {
          "internalType": "address",
          "name": "account",
          "type": "address"
        }
      ],
      "name": "balanceOf",
      "outputs": [
        {
          "internalType": "uint256",
          "name": "",
          "type": "uint256"
        }
      ],
      "stateMutability": "view",
      "type": "function"
    },
    {
      "inputs": [],
      "name": "decimals",
      "outputs": [
        {
          "internalType": "uint8",
          "name": "",
          "type": "uint8"
        }
      ],
      "stateMutability": "view",
      "type": "function"
    },
    {
      "inputs": [
        {
          "internalType": "address",
          "name": "to",
          "type": "address"
        },
        {
          "internalType": "uint256",
          "name": "amount",
          "type": "uint256"
        }
      ],
      "name": "mint",
      "outputs": [],
      "stateMutability": "nonpayable",
      "type": "function"
    },
    {
      "inputs": [],
      "name": "name",
      "outputs": [
        {
          "internalType": "string",
          "name": "",
          "type": "string"
        }
      ],
      "stateMutability": "view",
      "type": "function"
    },
    {
      "inputs": [
        {
          "internalType": "address",
          "name": "account",
          "type": "address"
        },
        {
          "internalType": "uint256",
          "name": "amount",
          "type": "uint256"
        }
      ],
      "name": "slash",
      "outputs": [],
      "stateMutability": "nonpayable",
      "type": "function"
    },
    {
      "inputs": [],
      "name": "symbol",
      "outputs": [
        {
          "internalType": "string",
          "name": "",
          "type": "string"
        }
      ],
      "stateMutability": "view",
      "type": "function"
    },
    {
      "inputs": [],
      "name": "totalSupply",
      "outputs": [
        {
          "internalType": "uint256",
          "name": "",
          "type": "uint256"
        }
      ],
      "stateMutability": "view",
      "type": "function"
    },
    {
      "inputs": [
        {
          "internalType": "address",
          "name": "to",
          "type": "address"
        },
        {
          "internalType": "uint256",
          "name": "value",
          "type": "uint256"
        }
      ],
      "name": "transfer",
      "outputs": [
        {
          "internalType": "bool",
          "name": "",
          "type": "bool"
        }
      ],
      "stateMutability": "nonpayable",
      "type": "function"
    },
    {
      "inputs": [
        {
          "internalType": "address",
          "name": "from",
          "type": "address"
        },
        {
          "internalType": "address",
          "name": "to",
          "type": "address"
        },
        {
          "internalType": "uint256",
          "name": "value",
          "type": "uint256"
        }
      ],
      "name": "transferFrom",
      "outputs": [
        {
          "internalType": "bool",
          "name": "",
          "type": "bool"
        }
      ],
      "stateMutability": "nonpayable",
      "type": "function"
    }
  ],
  "bytecode": "0x608060405234801561001057600080fd5b506040518060400160405280600b81526020016a2932b130b9b2aa37b5b2b760a91b8152506040518060400160405280600681526020016552454241534560d01b81525081600390816100639190610119565b5060046100708282610119565b5050506101d8565b634e487b7160e01b600052604160045260246000fd5b600181811c908216806100a257607f821691505b6020821081036100c257634e487b7160e01b600052602260045260246000fd5b50919050565b601f821115610114576000816000526020600020601f850160051c810160208610156100f15750805b601f850160051c820191505b81811015610110578281556001016100fd565b5050505b505050565b81516001600160401b0381111561013257610132610078565b61014681610140845461008e565b846100c8565b602080601f83116001811461017b57600084156101635750858301515b600019600386901b1c1916600185901b178555610110565b600085815260208120601f198616915b828110156101aa5788860151825594840194600190910190840161018b565b50858210156101c85787850151600019600388901b60f8161c191681555b5050505050600190811b01905550565b6107df806101e76000396000f3fe608060405234801561001057600080fd5b50600436106100a95760003560e01c8063313ce56711610071578063313ce5671461012957806340c10f191461013857806370a082311461014b57806395d89b4114610174578063a9059cbb1461017c578063dd62ed3e1461018f57600080fd5b806302fb4d85146100ae57806306fdde03146100c3578063095ea7b3146100e157806318160ddd1461010457806323b872dd14610116575b600080fd5b6100c16100bc366004610644565b6101c8565b005b6100cb6101d6565b6040516100d8919061066e565b60405180910390f35b6100f46100ef366004610644565b610268565b60405190151581526020016100d8565b6002545b6040519081526020016100d8565b6100f46101243660046106bd565b610282565b604051601281526020016100d8565b6100c1610146366004610644565b6102a6565b6101086101593660046106f9565b6001600160a01b031660009081526020819052604090205490565b6100cb6102b0565b6100f461018a366004610644565b6102bf565b61010861019d36600461071b565b6001600160a01b03918216600090815260016020908152604080832093909416825291909152205490565b6101d282826102cd565b5050565b6060600380546101e59061074e565b80601f01602080910402602001604051908101604052809291908181526020018280546102119061074e565b801561025e5780601f106102335761010080835404028352916020019161025e565b820191906000526020600020905b81548152906001019060200180831161024157829003601f168201915b5050505050905090565b600033610276818585610308565b60019150505b92915050565b60003361029085828561031a565b61029b858585610398565b506001949350505050565b6101d282826103f7565b6060600480546101e59061074e565b600033610276818585610398565b6001600160a01b0382166102fc57604051634b637e8f60e11b8152600060048201526024015b60405180910390fd5b6101d282600083610429565b6103158383836001610553565b505050565b6001600160a01b038381166000908152600160209081526040808320938616835292905220546000198114610392578181101561038357604051637dc7a0d960e11b81526001600160a01b038416600482015260248101829052604481018390526064016102f3565b61039284848484036000610553565b50505050565b6001600160a01b0383166103c257604051634b637e8f60e11b8152600060048201526024016102f3565b6001600160a01b0382166103ec5760405163ec442f0560e01b8152600060048201526024016102f3565b610315838383610429565b6001600160a01b0382166104215760405163ec442f0560e01b8152600060048201526024016102f3565b6101d2600083835b6001600160a01b0383166104545780600260008282546104499190610788565b909155506104c69050565b6001600160a01b038316600090815260208190526040902054818110156104a75760405163391434e360e21b81526001600160a01b038516600482015260248101829052604481018390526064016102f3565b6001600160a01b03841660009081526020819052604090209082900390555b6001600160a01b0382166104e257600280548290039055610501565b6001600160a01b03821660009081526020819052604090208054820190555b816001600160a01b0316836001600160a01b03167fddf252ad1be2c89b69c2b068fc378daa952ba7f163c4a11628f55a4df523b3ef8360405161054691815260200190565b60405180910390a3505050565b6001600160a01b03841661057d5760405163e602df0560e01b8152600060048201526024016102f3565b6001600160a01b0383166105a757604051634a1406b160e11b8152600060048201526024016102f3565b6001600160a01b038085166000908152600160209081526040808320938716835292905220829055801561039257826001600160a01b0316846001600160a01b03167f8c5be1e5ebec7d5bd14f71427d1e84f3dd0314c0f7b2291e5b200ac8c7c3b9258460405161061a91815260200190565b60405180910390a350505050565b80356001600160a01b038116811461063f57600080fd5b919050565b6000806040838503121561065757600080fd5b61066083610628565b946020939093013593505050565b60006020808352835180602085015260005b8181101561069c57858101830151858201604001528201610680565b506000604082860101526040601f19601f8301168501019250505092915050565b6000806000606084860312156106d257600080fd5b6106db84610628565b92506106e960208501610628565b9150604084013590509250925092565b60006020828403121561070b57600080fd5b61071482610628565b9392505050565b6000806040838503121561072e57600080fd5b61073783610628565b915061074560208401610628565b90509250929050565b600181811c9082168061076257607f821691505b60208210810361078257634e487b7160e01b600052602260045260246000fd5b50919050565b8082018082111561027c57634e487b7160e01b600052601160045260246000fdfea2646970667358221220ac40fd25987c3591eafb02380cba93ed96bbec8d1fc26e05831fd39ca65b4ffa64736f6c63430008180033",
  "linkReferences": {},
  "deployedLinkReferences": {}
}